:020000040800F2
:1000000078180024C10200082F6500086D5D000803
:100010002D650008790C0008E97A0008000000004E
:100020000000000000000000000000005D6A000801
:100030000111000800000000196800085F6A00084C
:10004000DB020008DB020008DB020008DB0200081C
:10005000DB020008DB020008DB020008DB0200080C
:10006000DB020008DB020008DB0200087D0C000850
:10007000DB020008DB020008DB020008DB020008EC
:10008000DB020008DB020008DB020008DB020008DC
:10009000DB020008DB020008DB020008DB020008CC
:1000A000DB020008DB020008DB020008DB020008BC
:1000B000D96B0008DB020008DB020008DB02000845
:1000C000DB020008DB020008DB020008DB0200089C
:1000D000DB020008DD7A0008DB020008DB02000812
:1000E000DB020008DB020008DB020008DB0200087C
:1000F000DB020008DB020008DB020008DB0200086C
:10010000DB020008DB020008DB020008DB0200085B
:10011000DB020008DB020008DB020008DB0200084B
:10012000DB020008DB020008DB020008DB0200083B
:10013000DB0200080000000000000000DB020008F5
:10014000DB020008DB020008DB020008DB0200081B
:10015000DB020008DB020008DB020008DB0200080B
:10016000DB020008DB020008DB020008DB020008FB
:10017000DB020008DB020008DB020008DB020008EB
:10018000DB020008DB020008DB020008DB020008DB
:10019000DB020008DB020008DB020008DB020008CB
:1001A000DB020008DB020008DB020008DB020008BB
:1001B000DB020008DB020008DB020008DB020008AB
:1001C000DB020008DB020008000000000000000065
:1001D0000000000000000000DB020008000000003A
:1001E000000000000000000000000000000000000F
:1001F0000000000000000000DB020008DB02000835
:10020000DB020008DB02000800000000DB0200083F
:10021000DB020008DB020008DB020008DB0200084A
:10022000DB020008DB020008DB020008000000001F
:10023000DB020008DB02000800000000DB0200080F
:10024000DB020008DB020008DB020008DB0200081A
:10025000DB020008DB020008DB020008DB0200080A
:10026000DB020008DB020008DB020008DB020008FA
:10027000DB020008DB020008DB02000800000000CF
:10028000DB020008DB02000800000000DB020008BF
:1002900000000000DB020008DB020008DB020008AF
:1002A000DB020008DB020008DB020008DFF80CD0EC
:1002B00000F02EFB00480047818A000878180024CF
:1002C0000648804706480047FEE7FEE7FEE7FEE7F0
:1002D000FEE7FEE7FEE7FEE7FEE7FEE7116B00083C
:1002E000AD0200082DE9F05F0546002092469B46CE
:1002F00088460646814640241BE02846414647463C
:10030000224600F01EFA53465A46C01A914110D3B5
:1003100011461846224600F005FA2D1A67EB01082F
:100320004F4622460120002100F0FCF917EB00099E
:100330004E41201EA4F10104DFDC484631462A4626
:100340004346BDE8F09FD2B201E000F8012B491E00
:10035000FBD270470022F6E710B513460A46044662
:100360001946FFF7F0FF204610BD30B505462A4676
:100370000B4612F8010B13F8014B08B1A042F8D05C
:100380001CB1002802D06D1CF1E7284630BD2DE9D4
:10039000FE4F804681EA0300C00F0C46009021F01A
:1003A000004123F00045B8EB0200A94105D24046C8
:1003B000214690461C460B46024623F0004010435F
:1003C00047D0270DC7F30A00C3F30A510290401A21
:1003D000019040286BDAC3F3130040F4801B0098AF
:1003E000924620B10023D2EB030A63EB0B0B01987A
:1003F0005946C0F14002504600F094F906460D46B9
:1004000050465946019A00F0ACF910EB08006141E2
:10041000002487EA115284EAE7731A4340D0009A15
:1004200062B3019A012A4FEA075215DC001B61EB07
:1004300002014FF0004202EA0752CDE90042001CDF
:1004400041F5801132462B4600F0E3F903B0BDE8D8
:10045000F08F40462146F9E7001B61EB0201001CCA
:1004600041F5801300185B412018A2F5001747EBF7
:10047000030140EAD570B6196D4111E06D084FEAED
:10048000360645EAC0754FEA0752001B61EB0201D0
:10049000001C41F5801149084FEA30000019514114
:1004A00032462B4603B0BDE8F04F00F0A3B90098E8
:1004B000012240000023D0EB020263EBE0730098BE
:1004C00021464FEAE074B8EB000061EB0401E9E774
:1004D00083F000435BE781F0004158E72DE9FE4FD0
:1004E00081EA030404F0004421F0004100944FF03D
:1004F000000B23F0004350EA01045ED052EA0304EB
:100500005BD0C3F30A54C1F30A552C44A4F2F3346C
:100510000194A0FB0254C1F3130141F48011C3F311
:10052000130343F4801301FB024400FB034E840ACF
:10053000970A44EA815447EA8357A4FB0768029567
:100540008D0A05FB07854FEA932C04FB0C54270505
:10055000029D4FEA065847EA1637B5EB08056EEBE1
:10056000070C870E920E47EA811742EA8312A7FB17
:100570000201B6EB0B0164EB00042B0D43EA0C33D4
:100580005E1844EB1C50DA465146E7FB0201C5F306
:1005900013044FEA0B3343EA14534FEA0432019C2D
:1005A00043EA0603A4F10C040294009CCDE900B4D4
:1005B00000F02FF903B0BDE8F08F00200146F9E705
:1005C0002DE9F04D81EA030404F0004B21F00045D1
:1005D00014464FF0000A23F0004150EA050220D0F3
:1005E00054EA01021DD0C5F30A570246C5F31303AE
:1005F000C1F31300C1F30A5640F4801543F480138D
:10060000A7EB0608101BD64608F2FD3873EB050071
:1006100002D308F1010801E092185B41B8F1000F24
:1006200003DA00200146BDE8F08D00204FF4801170
:10063000064684460EE0171B73EB050705D3121B15
:1006400063EB050306434CEA010C49084FEA30000E
:1006500092185B4150EA0107EDD152EA030012D033
:1006600082EA040083EA0501084305D0101BAB4170
:1006700006D20122002306E000224FF0004302E0F0
:100680006FF0010253101AEB06004CEB085110EB0F
:100690000A0041EB0B01BDE8F04D00F0ABB80EB520
:1006A000C10F80EAE0700844CA07002140F23343DA
:1006B0008DE80E000A460B4600F0ABF803B000BD13
:1006C00001F0004330B421F0004150EA010206D0AD
:1006D0000A0DA2F56072C1F31301002A02DC30BCDE
:1006E00000207047440F44EAC104C100E01830BC48
:1006F00000EBC25000F047B830B50B460146002071
:100700002022012409E021FA02F59D4205D303FAD3
:1007100002F5491B04FA02F52844151EA2F1010254
:10072000F1DC30BD202A04DB203A00FA02F100207F
:1007300070479140C2F1200320FA03F3194390401F
:100740007047202A04DB203A21FA02F0002170478A
:1007500021FA02F3D040C2F1200291400843194629
:100760007047202A06DBCB17203A41FA02F043EA11
:10077000E07306E041FA02F3D040C2F1200291405A
:100780000843194670470029A8BF7047401C49001C
:1007900008BF20F00100704710B4B0FA80FC00FAE6
:1007A0000CF050EA010404BF10BC704749B1CCF111
:1007B000200421FA04F411FA0CF118BF012121439D
:1007C0000843A3EB0C01CB1D4FEA00614FEA102058
:1007D00042BF002010BC704700EBC35010440029FA
:1007E000A4BF10BC7047401C490008BF20F00100A6
:1007F00010BC704710B5141E73F1000408DA401CD9
:1008000041F1000192185B411A4301D120F001002F
:1008100010BD2DE9F04D92469B4611B1B1FA81F21F
:1008200002E0B0FA80F220329046FFF77BFF0446E8
:100830000F4640EA0A0041EA0B0153465A46084374
:1008400013D0114653EA010019D0C8F140025046B6
:10085000FFF777FF05460E46504659464246FFF7DA
:1008600061FF084305D0012004E020463946BDE879
:10087000F08D0020054346EAE0762C4337430A9882
:100880006305E40AA0EB08000022FD0A44EA47548D
:100890000A3002D500200146E9E701051019694137
:1008A000DDE9084500196941BDE8F04DA2E7C1F353
:1008B0000A52C1F3130140F2FF3341F480119A420E
:1008C00002DA00200146704740F233439A42A2F216
:1008D000334202DC5242FFF734BFFFF723BF000070
:1008E00030B5041E71F1000404DB4FF000444042B7
:1008F00064EB0101141E73F1000405DB1C464FF08C
:100900000043524263EB0403994208BF904230BD5A
:10091000064C074D06E0E06840F0010394E807004C
:1009200098471034AC42F6D3FFF7C4FC709300082C
:100930009093000810B504462C48D0F8080310F432
:10094000403F10D003F07EFD6168B1F5803F06D0D6
:10095000B1F5003F03D0B1F5403F25D101E0090CCE
:1009600016E0800820E04FF4002002F0EBFE616802
:100970008A03920B18D18A140C2A15D2DFE802F0F0
:10098000140606060606060B0D0F1113890C490006
:10099000B0FBF1F008E0000906E0400904E080093E
:1009A00002E0C00900E0000A11494008884204D86A
:1009B0002068816821F4407108E00E49884207D818
:1009C0002068816821F4407141F48071816010BD1C
:1009D000094988422068816804D821F4407141F4B3
:1009E0000071F3E741F44071F0E70000002002409D
:1009F000105E5F0020BCBE0040787D012DE9F04113
:100A00000027044600680D4605F0D4F90646206824
:100A100005F0CCF930435DD020682F4EC1688901C4
:100A200005D5617D012902D1217D01290BD0022D3F
:100A30001DD0206805F0BEF9B8B120688168C1F307
:100A4000400169B111E02549012502E08F4232D20F
:100A50007F1C0268D2435206F8D440210160E8E7C7
:100A60008168314041F010018160012D11D0206872
:100A700005F09CF948B120688168C1F3400121B9B3
:100A80008168314041F020018160022D08D0032DA2
:100A900004D0042502F03AFB064617E00C25F9E7DE
:100AA0000825F7E702F032FB801B05280ED92068E5
:100AB000806828420AD0606D40F010006065A06D2B
:100AC00040F00100A0650120BDE8F0812068806849
:100AD0002842E7D10020F7E7C0FFFF7F00DC0C00D1
:100AE00010B5846B616D11F0500F06D0616DC906B1
:100AF00025D5204600F06DFD10BD606D40F40070FE
:100B0000606520680168090707D505F05BF990B1B9
:100B10002068C068800403D50DE0C06880070AD152
:100B2000606D20F480706065606DC00403D4606DFA
:100B300040F001006065204600F010FD10BDE16C42
:100B4000C96CBDE81040084710B5806B416D41F09D
:100B500040014165816D41F00401816500F039FD7E
:100B600010BD10B5806B00F033FD10BD70B50446AC
:100B7000006881688268C1F3400112F0010F28D03B
:100B800039BB816801F00D01012914D18168124A35
:100B90001140891C816021680320086002F0B6FAC8
:100BA000054612E002F0B2FA401B02280DD9206877
:100BB0008068C00709D0606D40F010006065A06DCE
:100BC00040F00100A065012070BD20688068C0076A
:100BD000E8D1002070BD0000C0FFFF7F70B5044663
:100BE0000068816811F0010F3BD181681E4A1142F3
:100BF00028D18168D5432940491C816002F086FADA
:100C000006461A4880681A4A00F01F012068904280
:100C100001D1184A00E0024682421DD0E1B120E035
:100C2000816811F0010F03D181682940491C81605E
:100C300002F06CFA801B02280ED920680068C043BD
:100C4000C00709D0606D40F010006065A06D40F0F5
:100C50000100A065012070BD20680168C943C90773
:100C6000DED1002070BD00003F0000800023024064
:100C70000021024000200240FEE70000014801F090
:100C80002DBA0000B8100024294A016891423AD0D8
:100C9000274A1832914236D0254A3032914232D01A
:100CA000234A483291422ED0214A603291422AD0C2
:100CB0001F4A7832914226D01D4A9032914222D06A
:100CC0001B4AA83291421ED01A4A91421BD0194A9F
:100CD0001832914217D0174A3032914213D0154A38
:100CE000483291420FD0134A603291420BD0114AE0
:100CF0007832914207D00F4A9032914203D00D4A88
:100D0000A832914211D1CAB21823103AB2FBF3F2C1
:100D10006FF30901032A02F00703074AD25CC26598
:100D200000D9091D81650846704721F0FF01F9E7E8
:100D300010000240100402409C8C000830B5224A8A
:100D4000012301689142CAB21BD01F4C1434A14246
:100D500017D01D4C2834A14213D01B4C3C34A14267
:100D60000FD0194C5034A1420BD0174C6434A1421F
:100D700007D0154C7834A14203D0134C8C34A142D7
:100D80000CD11421114C083AB2FBF1F10F4A803218
:100D900001F01F0504EB8101AB4010E00C4D18245D
:100DA000103A0D44B2FBF4F1A82D00D80831094ADD
:100DB00001F01F0402EB8101064AA340803260303B
:100DC00080E80E0030BD0000085402580058025858
:100DD000F0FBFDBF0008024010B50279531E072B3F
:100DE0002DD8174C0168A1421BD0154C1434A142D8
:100DF00017D0134C2834A14213D0114C3C34A142DB
:100E00000FD00F4C5034A1420BD00D4C6434A14292
:100E100007D00B4C7834A14203D0094C8C34A1424A
:100E200003D10849074C443102E00749064C4431DC
:100E300004EB8202C0E91B2101219940416710BDEA
:100E400008540258FC580258FC08024010B5836947
:100E50004FF0C074826A0146002053B1B3F5005FC1
:100E600015D072B1012A0CD0022A0AD0032A09D166
:100E700004E01AB1012A06D0022A03D1C96AC901C5
:100E800000D5012010BDC96AA142FAD010BD002AC8
:100E9000F7D0012AF2D0022AF3D0032AF3D010BDF2
:100EA0002DE9F04F8F4E8F4FDFF838921836DFF86C
:100EB00034A248370468856D0AF1300ADFF828B299
:100EC0004C45DFF828C2DFF828E26DD0B4426BD081
:100ED000544569D0BC4267D0DFF80C82A8F11808ED
:100EE000444561D05C455FD064455DD074455BD0BE
:100EF000DFF80082444557D0DFF8F88108F1180880
:100F0000444551D0DFF8EC8108F1300844454BD01E
:100F1000DFF8E08108F14808444545D0DFF8D48186
:100F200008F1600844453FD0DFF8C88108F178082F
:100F3000444539D0DFF8BC8108F19008444533D0EE
:100F4000DFF8B08108F1A80844452DD0DFF8A8816A
:100F5000444529D0DFF8A08108F11408444523D086
:100F6000DFF8948108F1280844451DD0DFF8888116
:100F700008F13C08444517D0DFF87C8108F150089F
:100F8000444511D0DFF8708108F1640844450BD066
:100F9000DFF8648108F17808444505D0DFF858810E
:100FA00008F18C08444509D1D0E91948C4F80480F7
:100FB000C46E1CB1D0E91C48C4F8048004684C45D8
:100FC0002ED0B4422CD054452AD0BC4228D0464E14
:100FD000183EB44224D05C4522D0644520D07445EC
:100FE0001ED0444EB4421BD0424E1836B44217D0E5
:100FF000404E3036B44213D03E4E4836B4420FD045
:101000003C4E6036B4420BD03A4E7836B44207D0EC
:10101000384E9036B44203D0364EA836B44215D17D
:1010200090F85C603F2406F01F06B440AC60046892
:10103000256825F4802525604DE09A600068C16030
:10104000BDE8F08F99600068C260F9E72B4EB442AA
:101050003AD02A4E1436B44236D0284E2836B442FE
:1010600032D0264E3C36B4422ED0244E5036B442B6
:101070002AD0224E6436B44226D0204E7836B4426E
:1010800022D01E4E8C36B4421ED01B4EB4421BD012
:10109000194E1436B44217D0174E2836B44213D026
:1010A000154E3C36B4420FD0134E5036B4420BD0DE
:1010B000114E6436B44207D00F4E7836B44203D096
:1010C0000D4E8C36B442BBD190F85C60012406F022
:1010D0001F06B4406C60046863608368402B03683B
:1010E000B0D1AAE71000024088000240A0000240F0
:1010F000B80002401004024008540258082C02486C
:10110000704772B6FEE700002DE9F0470E4690F8F2
:1011100050109AB0044601294FF0000916D000255E
:101120002D4F012084F85000159516952068B8427F
:1011300010D1DFF8A880CDF80080404604F03EFED4
:101140008246206804F03AFE60B10EE002201AB038
:10115000BDE8F087606D84F8505040F02000606575
:101160000120F4E7BAF1000F0AD0616D4FF00109D8
:1011700041F02000C4F85400484684F85050E6E797
:10118000174840F61F713268002A826814D07368CD
:1011900022F440421A438260BA68D8F8083002F05C
:1011A000010203F001031A43E6D13268B66883688E
:1011B00032438B431A430DE022F440428260BA6806
:1011C000D8F8083002F0010203F001031A43D3D12A
:1011D00082688A438260CFE70020024000210240FB
:1011E000002302402DE9F84F4FF000090446DFF8D4
:1011F00040A30D46CDF800904F4690F85000DFF820
:1012000034B3012807D0012684F85060206804F028
:10121000D1FD18B14BE10220BDE8F88F21682868A4
:10122000CA69030328D090FAA0F0B0FA80F000BF9A
:1012300000F01F0006FA00F00243CA61D5E900126F
:101240004FF00C0C20681F23C1F384610CEA921C40
:1012500002F01F02604493409140026B9A430A439C
:101260000263206804F0A6FD8046206804F09EFD1D
:1012700058EA000003D074E0C0F38460D8E7AA689D
:101280002968206804F0A6FD2068C168C268C90604
:10129000696903D4C2F38202520002E002F0100234
:1012A000520891402A69042A2CD000EB82002B6856
:1012B000026E03F0F8430B4302F00041194301664C
:1012C000697E22682869012916D0002102EB80007E
:1012D000026E22F000420A430266297E20682A69D3
:1012E00001290CD00021036902F01F02914023F470
:1012F000F0420A43026134E04FF00041E6E74FF468
:101300000061F0E7016E2A7801F0F841B1EB826FDD
:1013100003D1016E21F00041016620682978426EF8
:1013200002F0F842B2EB816F03D1416E21F000412F
:10133000416620682978826E02F0F842B2EB816F34
:1013400003D1816E21F00041816620682978C26E48
:1013500002F0F842B2EB816F03D1C16E21F000417F
:10136000C1662068816811F0010F79D150F8C02F53
:101370002B7BDFF8C4C1296803F018032CFA03FCA7
:10138000C1F3130822EA08020CEA010C42EA0C023B
:1013900002606A48E968814278D1286801031CD05C
:1013A00090FAA0F1B1FA81F1491C01F01F0109295D
:1013B0004FEA003132D8002912D000BF90FAA0F1D4
:1013C000B1FA81F101F1010101F01F0106FA01F604
:1013D00009D100BFC0F3846109E0C0F38461E3E791
:1013E000C0F38461EEE790FAA0F1B1FA81F101F166
:1013F000010101F01F0146EA816102D1C0F384605E
:1014000003E090FAA0F0B0FA80F000F1010000F0E3
:101410001F0000EB400041EA005133E000290ED0EC
:1014200090FAA0F1B1FA81F101F1010101F01F017F
:1014300006FA01F606D100BFC0F3846106E0C0F3EE
:101440008461F1E790FAA0F1B1FA81F101F10101B3
:1014500001F01F0146EA816103D1C0F3846004E01A
:101460002AE090FAA0F0B0FA80F0354A00F10100CD
:1014700000F01F0000EB400002EB005041EA0001C9
:1014800041F00071AA68206804F0A4FC2B68002BCE
:1014900012DA2C488168DAF8082001F0E071DBF8F4
:1014A000086002F0010506F00106354308D0606DC2
:1014B000012740F020006065384684F85090ABE684
:1014C000214DAB4218D10D0216D423685B45F3D1F0
:1014D000826841F4000122F0E0720A4382601C49F4
:1014E0001A480968B1FBF0F04000801C00E0401E83
:1014F00000900028FBD1DFE7164DAB4207D1CD01AC
:1015000005D423685B45D7D141F0807109E0124DC5
:10151000AB42D1D14B02CFD423685B45CCD141F44F
:101520008001826822F0E0720A438260C4E7000012
:101530000020024000210240FFFF0F000000FF4793
:10154000000020FE00230240000084CB400D030079
:10155000180000240040C0BA0000B8CF70B50D4894
:10156000002400F089FA0CA006F0C0FA134D4FF4E5
:10157000006600BF35F8141011A006F0B7FA641C1D
:10158000A4B2B442F6D332460C49BDE870400148DB
:1015900000F0F6B95410002453746172742020696D
:1015A0006E746F20204646542020696E74657272F6
:1015B000757074202020200D0A00000038000024DF
:1015C0006164635F56616C75653D256400000000D1
:1015D00070477047F8B54FF0000604003546009696
:1015E00002D0606D10B107E00120F8BD204600F088
:1015F000DDF8A66584F8506020688168C1F3407109
:1016000019B181685E4A1140816020688168C1F328
:10161000007181B981685B4A114041F0805181605D
:101620005A4959480968B1FBF0F0401C00E0401EDF
:1016300000900028FBD120688168C1F3007141B996
:10164000616D012541F010016165A16D41F001015D
:10165000A16504F0AFFB616DC90600D420B1606DD7
:10166000012540F010006EE0606D20F4807040F0C5
:10167000020060652068806810F0010F10D14448B6
:101680008068444900F00100896801F001010843C5
:1016900006D141488268616822F47C120A43826064
:1016A000627D217FA368206B520342EA0142184306
:1016B000012940EA020004D1218C384A02EB414161
:1016C0000843616A29B1A26A01F47871014342EAD0
:1016D00001002168324BCA681A400243CA60206880
:1016E00004F068FB0646206804F060FB30431DD11F
:1016F000206844F20303267DE26AC16842EA86322A
:1017000099431143C16094F8380001281ED0206825
:10171000016921F0010101612068626B016921F01A
:101720007041114301612046FFF704F9E068012888
:1017300020681DD0016B21F00F010163606D20F066
:10174000020040F0010060652846F8BD2168A38FC3
:10175000144FD4E9100C144E07EB0347A26C0B692D
:1017600040EA0C003A433340104318430861D3E782
:10177000A269016B521E21F00F011143DDE7000049
:10178000C0FFFF5FC0FFFF7F400D03001800002473
:101790000020024000210240002302400000FEFF22
:1017A00003C0F0FF0100FFFF1EF800FC2DE9F0412F
:1017B000B4B0804614212EA8FEF7CCFDB8216846AF
:1017C000FEF7C8FD2B49D8F8000088424ED105200D
:1017D0000221482302938A04CDE90020CDE90301C8
:1017E00005A80025802480E83200684608952A95DF
:1017F00002F0C2F808B1FFF784FC1F48016841F00D
:1018000020010160006800F0200033901A48083081
:10181000016841F00401016000682EAA032100F074
:1018200004003390202082E8230014482EA901F000
:101830004BFB14480921124C0215C3142060871574
:10184000C4E90115D001C4E9035204F11401C4E94B
:101850000805D600204681E8C80000F0D7FF08B18F
:10186000FFF74FFCC8F84C40C4F8388034B0BDE8EE
:10187000F08100000020024038450258000802585C
:10188000B8100024100002402DE9F0410446384809
:10189000806800F01F05206804F08CFA18B102215E
:1018A0000846BDE8F08194F8500001280CD00120D2
:1018B00084F850002046FFF791F901004FF0000333
:1018C00004D084F85030EBE70220EAE7676D40F679
:1018D000016C284A284E27EA0C07206847F48077D5
:1018E0006765904201D1374600E00746874200D045
:1018F0001DB9676D27F480176765676DFF0404D510
:10190000A76D27F00607A76500E0A3651C27076001
:1019100084F850302068904201D1334600E00346FD
:10192000834215D0A5B1052D12D0092D10D0636DBD
:10193000904243F48013636500D13046C068800153
:10194000AED5606D20F4005040F480506065A7E78C
:10195000C268920105D5626D22F4005242F48052B1
:1019600062658268054B1A40121D826098E700008C
:10197000002302400021024000200240C0FFFF7F00
:101980002DE9F0410446354817468846806800F046
:101990001F05206804F00EFA00285CD194F850006E
:1019A000012858D001204FF0000684F8500025B1DE
:1019B000052D02D0092D00D003E02046FFF70EF9D7
:1019C00018B184F85060BDE8F081616D40F60162A5
:1019D000234B2068914341F480716165984201D1A5
:1019E000204900E00146814200D01DB9606D20F41D
:1019F00080106065606DC00404D5A06D20F0060005
:101A0000A06500E0A6651C20E16C174ACA63E26C81
:101A100016491164E26C1649D1642168086084F8A3
:101A200050602068416841F0100141602068E16A1F
:101A3000C26822F003020A43C26021683B46E06CA0
:101A40004246403101F0E0F821680A4B8A681A40AA
:101A5000121D8A60B7E70220B5E7000000230240AC
:101A60000021024000200240E10A0008630B000848
:101A7000490B0008C0FFFF7F70B5044690F8500086
:101A8000012809D0012084F8500003212046FEF7E8
:101A9000B5FF050002D027E0022070BD2068C168B4
:101AA00021F00301C160E06C90F83510022907D1E4
:101AB00000F020F8050003D0606D40F04000606544
:101AC0002068416821F010014160204615B1FFF700
:101AD0004DF809E0FFF74AF8050005D1606D20F4E4
:101AE000885040F001006065002084F850002846CE
:101AF00070BD00002DE9F84F044601F007FB002CF3
:101B0000009008D094F83500022805D08021616546
:101B1000002084F83400E3E0C84DC84EC7491835AA
:101B200020683036DFF81883DFF818938842DFF832
:101B300018A3DFF818B32ED0A8422CD0B0422AD078
:101B4000404528D0484526D0504524D0584522D07D
:101B5000BE4A183290421ED0BD4A90421BD0BC4AA9
:101B60001832904217D0BA4A3032904213D0B84A55
:101B7000483290420FD0B64A603290420BD0B44AFD
:101B80007832904207D0B24A9032904203D0B04AA5
:101B9000A832904209D1026822F01E020260206839
:101BA000426922F08002426103E0026822F00E02E4
:101BB000026027688F4238464DD0A8424BD0B042D1
:101BC00049D0404547D0484545D0504543D0584579
:101BD00041D09E4A183290423DD09D4A90423AD020
:101BE0009B4A1832904236D0994A3032904232D0D5
:101BF000974A483290422ED0954A603290422AD07D
:101C0000934A7832904226D0914A9032904222D024
:101C10008F4AA83290421ED08E4A90421BD08D4AE5
:101C20001432904217D08B4A2832904213D0894AFE
:101C30003C3290420FD0874A503290420BD0854AB6
:101C40006432904207D0834A7832904203D0814A6E
:101C50008C32974204D1206E026822F480720260B6
:101C600076492068884228D0A84226D0B04224D0A5
:101C7000404522D0484520D050451ED058451CD064
:101C800072491831884218D07149884215D070497C
:101C90001831884211D06E49303188420DD06C49DC
:101CA0004831884209D06A496031884205D0684984
:101CB0007831884201D066499031016821F00101F4
:101CC000016010E001F022FA0099401A05280AD9B3
:101CD000202262650020032184F8340084F8351046
:101CE0000120BDE8F88F3868C007EBD1534A0121C5
:101CF000206890422ED0A8422CD0B0422AD0404535
:101D000028D0484526D0504524D0584522D04F4BA6
:101D1000183398421ED04E4B98421BD04C4B183370
:101D2000984217D04A4B3033984213D0484B48332F
:101D300098420FD0464B603398420BD0444B7833D7
:101D4000984207D0424B9033984203D0404BA8337F
:101D5000984208D194F85C703F23A06D07F01F07EC
:101D6000BB40836007E094F85C30A06D03F01F0374
:101D700001FA03F34360206890424DD0A8424BD053
:101D8000B04249D0404547D0484545D0504543D062
:101D9000584541D02D4A183290423DD02C4A9042AD
:101DA0003AD02B4A1832904236D0294A30329042EB
:101DB00032D0274A483290422ED0254A6032904293
:101DC0002AD0234A7832904226D0214A903290423B
:101DD00022D01F4AA83290421ED01E4A90421BD0E9
:101DE0001C4A1432904217D01A4A2832904213D01B
:101DF000184A3C3290420FD0164A503290420BD0D3
:101E0000144A6432904207D0124A7832904203D08A
:101E1000104A8C3290420BD1D4E919024260E06E34
:101E200030B1026822F480720260D4E91C02426080
:101E3000002084F8340084F8351052E71000024086
:101E4000580002407000024088000240A00002409A
:101E500010040240085402582DE9F05F28B190F8B0
:101E60003510022904D0802141650120BDE8F09F92
:101E7000904C904B0168183C18338E4ADFF83C9226
:101E8000A1428D4CDFF838E28E4FDFF83CB2DFF82C
:101E90003CA28F4D8F4E31D091422FD099422DD000
:101EA000A1422BD0494529D0714527D0B94225D030
:101EB000DFF810C20CF1180C61451FD0DFF808C222
:101EC000ACF1600C614519D0DFF8FCC1ACF1480CF5
:101ED000614513D0DFF8F0C1ACF1300C61450DD095
:101EE000DFF8E4C1ACF1180C614507D0594505D0C5
:101EF000514503D0A94201D0B1422CD1DFF8B4C181
:101F00004FF0040880F83580ACF1180C61451DD005
:101F100091421BD0994219D0A14217D0494515D002
:101F2000714513D0B94211D06648183081420DD0A6
:101F300065486038814209D063484838814205D0FD
:101F400061483038814201D05F481838086820F075
:101F500001000860ABE0D1F800C02CF00E08DFF8FB
:101F600054C1C1F80080ACF1180C0168614527D05C
:101F7000914225D0994223D0A14221D049451FD07A
:101F800071451DD0B9421BD0DFF838C10CF1180CD7
:101F9000614515D0DFF830C1ACF1600C61450FD060
:101FA000DFF824C1ACF1480C614509D0DFF818C155
:101FB000ACF1300C614503D0DFF80CC1ACF1180C6A
:101FC000D1F800C02CF0010CC1F800C0DFF8E480AB
:101FD0004FF0010C0168A8F11808414546D0914224
:101FE00044D0994242D0A14240D049453ED07145AB
:101FF0003CD0B9423AD0334A1832914236D0324AB4
:10200000603A914232D0304A483A91422ED02E4A1C
:10201000303A91422AD02C4A183A914226D059455A
:1020200024D0514522D0A94220D0B1421ED02A4A04
:1020300091421BD0284A1432914217D0264A2832A6
:10204000914213D0244A3C3291420FD0224A50325E
:1020500091420BD0204A6432914207D01E4A783216
:10206000914203D01C4A8C32914218D1016E0A6809
:1020700022F480720A6090F85C20816D02F01F02E9
:102080000CFA02F24A60D0E919124A60C16E31B10D
:102090000A6822F480720A60D0E91C124A600022A9
:1020A000016D80F8342080F835C001B188470020E8
:1020B000DCE60000280002405800024070000240A8
:1020C00088000240A00002407004024088040240E0
:1020D000A0040240B8040240085402582DE9FC5FF5
:1020E0000446FA4E0020DFF8E48300904FF41652C5
:1020F000F74808F11808A56DDFF8D0A3DFF8CCB3D6
:1021000001680AF1300A20680BF1480BB1FBF2F1CB
:10211000B04201912F68D5F800C0DFF8B89336D0EF
:102120004146884233D0504531D058452FD0E749F9
:10213000603188422BD0E5497831884227D0E34985
:102140009031884223D0E149A83188421FD04845C8
:102150001DD0E0491831884219D0DE49303188421B
:1021600015D0DC4A4832904211D0DA4960318842B9
:102170000DD0DFF860E30EF1780E704507D0D54B37
:102180009033984203D0D349A83188427ED194F845
:102190005C20082102F01F0201FA02F23A424BD001
:1021A000B04233D0404531D050452FD058452DD086
:1021B000C64A6032904229D0C44A7832904225D033
:1021C000C24A9032904221D0C04AA83290421DD0DB
:1021D00048451BD0BF4A1832904217D0BD4A303212
:1021E000904213D0BB4A483290420FD0B94A603275
:1021F00090420BD0B74A7832904207D0B54A90321D
:10220000904203D0B34AA832904203D1026802F050
:10221000040202E0026802F008026AB1026822F0D9
:102220000402026094F85C0000F01F008140A96085
:10223000606D40F00100606594F85C00012100F0E1
:102240001F008140394241D02068B04235D040451E
:1022500033D0504531D058452FD09C4A60329042FF
:102260002BD09A4A7832904227D0984A90329042A6
:1022700023D0964AA83290421FD048451DD0954A97
:102280001832904219D0934A303200E0B2E19042C5
:1022900013D0904A483290420FD08E4A603290421A
:1022A0000BD08C4A7832904207D08A4A90329042C2
:1022B00003D0884AA83290427ED1406910F0800F46
:1022C00004D0A960606D40F00200606594F85C0085
:1022D000042100F01F00814039423FD02068B04205
:1022E00033D0404531D050452FD058452DD0774A76
:1022F0006032904229D0754A7832904225D0734A94
:102300009032904221D0714AA83290421DD0484567
:102310001BD0704A1832904217D06E4A3032904229
:1023200013D06C4A483290420FD06A4A60329042D1
:102330000BD0684A7832904207D0664A9032904279
:1023400003D0644AA83290424FD1006810F0020FC7
:1023500004D0A960606D40F00400606594F85C00F2
:10236000102100F01F008140394259D02068B0424E
:1023700035D0404533D0504531D058452FD0534A01
:10238000603290422BD0514A7832904227D04F4A47
:102390009032904223D04D4AA83290421FD04845F7
:1023A0001DD04C4A1832904219D04A4A30329042DD
:1023B00015D0484A483200E015E090420FD0454A17
:1023C000603290420BD0434A7832904207D0414A63
:1023D0009032904203D03F4AA832904207D1006821
:1023E00000F0080006E0006870E70068B6E70068E3
:1023F00000F00400A0B1A96020680168490304D579
:102400000068000308D5A16C07E00168C90503D482
:10241000016821F008010160216C09B1204688475C
:1024200094F85C00202100F01F008140394278D0F0
:102430002068B04233D0404531D050452FD0584568
:102440002DD0224A6032904229D0204A78329042E0
:1024500025D01E4A9032904221D01C4AA832904288
:102460001DD048451BD01B4A1832904217D0194A3C
:102470003032904213D0174A483290420FD0154A5A
:10248000603290420BD0134A7832904207D0114A02
:102490009032904203D00F4AA832904203D1006894
:1024A00000F0100002E0006800F00200A0B3A96094
:1024B00094F835000428206801680DD049037DD5C3
:1024C0000068000329D4616C28E00000100002407D
:1024D000180000241004024021F016010160206859
:1024E000416921F080014161206C08B9A06C20B1E4
:1024F0002068016821F00801016094F85C303F21F8
:10250000002203F01F0301209940A96084F83420C1
:1025100084F83500216D66E003E0E16B09B12046E7
:102520008847606D00287DD0606DC0075AD0206854
:10253000042184F83510B0422BD0404529D05045B5
:1025400027D0584525D0AD49884222D0AB49183113
:1025500088421ED0A949303188421AD0A749483153
:10256000884216D0484514D0A549884211D0A449C4
:10257000183188420DD0A2493031884209D0A04993
:102580004831884205D09E496031884201D09C493B
:102590007831016821F00101016020680099019AF9
:1025A000491C0091914202D80168C907F6D1002167
:1025B00084F834100068C00711D000E001E0032067
:1025C0000EE00168C905A8D403680022012123F0A8
:1025D0001003036084F8342084F835109DE701204F
:1025E00084F83500E16C00291CD002B02046BDE81B
:1025F000F05F0847834988423CD0824914318842C1
:1026000038D080492831884234D07E493C318842D4
:1026100030D07C49503188422CD07A49643188428C
:1026200028D000E0A4E077497831884222D075496B
:102630008C3188421ED0744988421BD072491431B3
:10264000884217D070492831884213D06E493C31F6
:1026500088420FD06C49503188420BD06A496431AE
:10266000884207D068497831884203D066498C3166
:1026700088427DD194F85C800427016808F01F0827
:1026800007FA08F717EA0C0F009746D04F0744D512
:1026900000980F04686003D5C8033CD4A16CA2E77E
:1026A000880638D42068B0422DD054494839884231
:1026B00029D0504527D0584525D05049884222D0AE
:1026C0004E49183188421ED04C49303188421AD0C8
:1026D0004A494831884216D0484514D04849884272
:1026E00011D04749183188420DD090420BD044494F
:1026F0004831884207D0704505D0984203D0404900
:102700009031884203D1016821F0080102E001689C
:1027100021F004010160216C65E7022707FA08F740
:1027200017EA0C0F00974ED08F074CD500980F0476
:10273000686003D5C80344D4616C54E7880640D46C
:102740002068B0422FD02D49483988422BD05045BF
:1027500029D0584527D02949884224D02749183103
:10276000884220D02549303188421CD0234900E0DE
:1027700042E04831884216D0484514D0204988426A
:1027800011D01F49183188420DD090420BD01C49FE
:102790004831884207D0704505D0984203D0184987
:1027A0009031884203D1016821F0140102E00168F0
:1027B00021F00A010160002184F83410012084F81E
:1027C0003500E16B0FE7082202FA08F212EA0C0F5B
:1027D00012D0090710D5016821F00E01016094F8AC
:1027E0005C100120002201F01F0100FA01F1696074
:1027F000606584F83420F3E6BDE8FC9F7000024079
:1028000028040240082C0248085402582DE9F05FC1
:10281000044600F07BFC002C07467DD0F14E0221DF
:1028200020684FF00308DFF8C0934FF00005DFF891
:10283000BCA3B042DFF8B8B334D0EA4A18329042B1
:1028400030D048452ED050452CD058452AD0E84AA3
:102850001832904226D0E64A3032904222D0E44AE2
:10286000483290421ED0E34A90421BD0E14A1832CF
:10287000904217D0DF4A3032904213D0DD4A4832BE
:1028800090420FD0DB4A603290420BD0D94A783266
:10289000904207D0D74A9032904203D0D54AA8320E
:1028A00090427DD184F8345084F83510B0422ED057
:1028B000CC49183188422AD0484528D0504526D0E6
:1028C000584524D0CA491831884220D0C8493031EF
:1028D00088421CD0C6494831884218D0C549884230
:1028E00015D0C4491831884211D0C24930318842CC
:1028F0000DD0C0494831884209D0BE496031884274
:1029000005D0BC497831884201D0BA49903101687C
:1029100021F00101016008E043E100BF00F0F6FB97
:10292000C01B052801D9202138E120680068C007B4
:10293000F4D104F108002168D4E9053C8E4685C82D
:1029400009681043D4E907281F43636A3843AA4F34
:1029500040EA0C001043394040EA0800042B40EAEA
:10296000010003D1D4E90B12114308436168A1F1BE
:102970002902052A0BD9163A032A08D9083A012A4E
:1029800005D9083A032A02D97439032901D840F439
:102990008010CEF800002068676A4069042F00E0CC
:1029A0001FE020F0070047EA00070DD1D4E90A0133
:1029B000074349B12046FEF749FA28B14020606537
:1029C000012184F83510ECE0206847612046FEF7CD
:1029D0005BF994F85C203F2102F01F029140816076
:1029E00074E0864A90423AD0844A1432904236D0FB
:1029F000824A2832904232D0804A3C3290422ED0D5
:102A00007E4A503290422AD07C4A6432904226D08C
:102A10007A4A7832904222D0784A8C3290421ED044
:102A2000774A90421BD0764A1432904217D0744AAB
:102A30002832904213D0724A3C3290420FD0704AF2
:102A4000503290420BD06E4A6432904207D06C4AAA
:102A50007832904203D06A4A8C3290427ED1684AE2
:102A6000684B84F8345084F835100168A26801EA94
:102A7000030E402A73D0802A72D00022D4E9037852
:102A8000D4E9053142EAD70242EAD8085C4AD4E9DF
:102A9000077C48EAD30848EAD10141EAD70152420B
:102AA00041EA1C11142341EA0E0101602068104420
:102AB000B0FBF3F08000E0652046FEF7E5F894F8FF
:102AC0005C20012102F01F02914041602068B04269
:102AD00057D044491831884253D0484551D05045C9
:102AE0004FD058454DD042491831884249D04049CD
:102AF0003031884245D03E494831884241D03D4935
:102B000088423ED03B49183188423AD03949303169
:102B1000884236D037494831884232D03549603111
:102B200088422ED03349783188422AD031499031B9
:102B3000884226D02F49A831884222D03049884285
:102B40001FD02F49143188421BD02D49283188428B
:102B500017D02B493C31884213D002E01DE017E02A
:102B600018E02749503188420BD02549643188420A
:102B700007D023497831884203D021498C318842DB
:102B800029D12046FEF7DAF8A06880280CD00CE0A6
:102B9000102273E74FF4804270E74021616584F8AA
:102BA00035800120BDE8F09F6560216E20790860C6
:102BB000D4E9190141606068401E072808D8204602
:102BC000FEF70AF9E06E0560D4E91C01416002E0FD
:102BD000E566256765670120656584F83500002096
:102BE000E0E70000100002404000024058000240B0
:102BF00070000240100402403F8010FE082C024882
:102C0000085402580F00FEFF2DE9F84F04008C46CF
:102C10004FF00000009013D094F83400012811D038
:102C200094F835500120002184F83400012D0BD098
:102C300084F83410C202009062650098BDE8F88FF5
:102C40000120FBE70220F9E78C4D0226206884F87A
:102C50003560A8428A4D61658A4E8B4FDFF82C8221
:102C6000DFF82C92DFF82CA2DFF82CB226D0A84295
:102C700024D0B04222D0B84220D040451ED0484592
:102C80001CD050451AD0584518D08449884215D0D8
:102C900082491831884211D08049303188420DD0A4
:102CA0007E494831884209D07C496031884205D04C
:102CB0007A497831884201D078499031016821F011
:102CC0000101016061462046FEF7EAF86B49206881
:102CD00088422CD0A8422AD0B04228D0B84226D070
:102CE000404524D0484522D0504520D058451ED0DC
:102CF0006A4A90421BD0694A1832904217D0674AFC
:102D00003032904213D0654A483290420FD0634A25
:102D1000603290420BD0614A7832904207D05F4ACD
:102D20009032904203D05D4AA83290420CD10268A2
:102D300022F01E0242F016020260206C88B1206868
:102D4000026842F008020BE0026822F00E0242F034
:102D50000A020260206C20B12068026842F004027E
:102D60000260206888424BD0A84249D0B04247D088
:102D7000B84245D0404543D0484541D050453FD06A
:102D800058453DD0454A90423AD0444A1832904284
:102D900036D0424A3032904232D0404A4832904295
:102DA0002ED03E4A603290422AD03C4A783290423D
:102DB00026D03A4A9032904222D0384AA8329042E5
:102DC0001ED0374A90421BD0354A1432904217D059
:102DD000334A2832904213D0314A3C3290420FD0CD
:102DE0002F4A503290420BD02D4A6432904207D085
:102DF0002B4A7832904203D0294A8C3290420DD12E
:102E0000206E0268D20303D5026842F48072026029
:102E1000E06E18B1026842F4807202602068884255
:102E200026D0A84224D0B04222D0B84220D040457B
:102E30001ED048451CD050451AD0584518D01749C7
:102E4000884215D015491831884211D013493031C4
:102E500088420DD011494831884209D00F4960316C
:102E6000884205D00D497831884201D00B49903114
:102E7000016841F001010160DFE60000100002403E
:102E8000280002404000024058000240700002400A
:102E900088000240A0000240B80002401004024036
:102EA0000854025870B5044600F030F90546601C1D
:102EB00002D004480078044400F028F9401BA042E6
:102EC000FAD370BD0C0000242DE9FC4F01257E4C87
:102ED00000234FF0030A4FF0B04E4FF00F0BEBE022
:102EE00005FA03F637403A0077D04F68012F05D036
:102EF000022F03D0112F01D0122F1AD187684FEA69
:102F00004308D1F80CC00AFA08F927EA09070CFAB5
:102F100008FC4CEA070CC0F808C0476891F804C0E8
:102F2000B743CCF3001C0CFA03FC4CEA070CC0F8C6
:102F300004C0C6684FEA430CD1F80880E1460AFA9B
:102F40000CF7BE43019708FA09F848EA0608C0F8EA
:102F50000C804E68022E01D0122E12D1DE084FEAEC
:102F6000437C00EB860600960F69366A4FEADC6CFC
:102F70000BFA0CF807FA0CF726EA08063743009E0E
:102F800037620E790768DDF804C006F0030606FA1A
:102F900009F627EA0C073E4306604E68F6001CD58A
:102FA0004A4E376847F00207376036689F0706F0D9
:102FB0000206009623F0030606F1B046B1463F0F25
:102FC000D6F80864DFF808810BFA07FC404526EACA
:102FD0000C0603D14FF0000C41E06CE0DFF8F4C0C8
:102FE000604502D14FF0010C39E0DFF8ECC06045DC
:102FF00002D14FF0020C32E0DFF8E0C0604502D1B0
:103000004FF0030C2BE0DFF8D8C0604502D14FF041
:10301000040C24E0DFF8CCC0604502D14FF0050C71
:103020001DE0DFF8C4C0604502D14FF0060C16E089
:10303000DFF8B8C0604502D14FF0070C0FE0DFF8B1
:10304000B0C0604502D14FF0080C08E0DFF8A4C022
:10305000604502D14FF0090C01E04FF00A0C0CFA68
:1030600007FC4CEA060CC9F808C426684F6826EA33
:103070000206FF0300D51643266066684F6826EAFD
:103080000206BF0300D516436660D1F804C0764639
:10309000DEF800705FEACC2C27EA020700D5174360
:1030A0003760D1F804C077685FEA8C2C27EA020702
:1030B00000D5174377605B1C0A681746DA407FF437
:1030C0000FAFBDE8FC8F0000800000585445025847
:1030D000000002580004025800080258000C025870
:1030E000001002580014025800180258001C025820
:1030F00000200258002402580069084000D0012036
:1031000070470AB1816170470904FBE70148806894
:10311000704700000C0000240248816802781144C6
:10312000816070470C000024032010B500F0D4F833
:1031300001F0CEF90F4A104914681368C4F3032252
:1031400003F00F038A5CC95C02F01F0201F01F014B
:10315000D0400A4A20FA01F11160094908600F20A5
:1031600000F010F808B1012010BD00F079F800203F
:1031700010BD000018440258CC8C00081C0000242C
:103180001800002470B50D4D04462878A0B14FF406
:103190007A71B1FBF0F00A490968B1FBF0F001F077
:1031A000B3FD48B9102C07D200222146501E00F072
:1031B00073F800206C6070BD012070BD0C0000240D
:1031C00018000024F0B5154C4378211D0A1D23601A
:1031D0000378F3B143680B60057BC67A817A437B41
:1031E0002D07847B45EA0665C77B90F809C0067AFF
:1031F00090F800E045EAC14040EA834040EA44409C
:1032000040EA074040EA0C2040EA460040EA0E004F
:1032100001E0002008601060F0BD000098ED00E0C3
:10322000BFF35F8F044800210368034A23F480330F
:10323000036070321160704724ED00E0074A40F0EF
:103240000100064970321060086840F48030086060
:10325000BFF34F8FBFF36F8F7047000024ED00E086
:10326000054808B5016841F002010160006800F0FE
:103270000200009008BD000054450258002809DBF8
:10328000410900F01F028900012001F1E021904076
:10329000C1F80001704700000E4BF0B41B680D46EA
:1032A000C3F30223C3F10706042E00D90426191D17
:1032B000072901D2002300E0DB1E012404FA06F1F5
:1032C0009C40491E2940641E994014402143F0BC93
:1032D00004F034BC0CED00E0064900F0070210B524
:1032E0004FF6FF040868044B204040EA02201843D0
:1032F000086010BD0CED00E00000FA05134970B540
:103300000A68D243520705D5096801F007018142D6
:1033100013D118E00A6822F0070202430A60FFF79F
:10332000F5FE0A4D4FF47A760446083D07E000BFEB
:10333000FFF7ECFE001BB04201D9012070BD2868E8
:10334000C0438004F4D4002070BD00000C48025833
:1033500010B501F077F805490968054AC1F3021173
:10336000515C01F01F01C84010BD0000204402580C
:10337000CC8C00084A4930B5494C0B1D0A680C3406
:1033800009681D68246802F0030305F00102C1F317
:103390000511C4F3CC04002914FB02F200EE102A3C
:1033A000F8EE400A76D0414A9FED3E1ADFED3E1A14
:1033B000B7EE000A23B1012B5AD0022B18D15CE0E2
:1033C000374C283C23689B0612D5394B246801EE04
:1033D000901A1168C4F3C104F8EE612AE34001EECB
:1033E000903AC1F30801F8EE611A81EEA22A07E0D3
:1033F00002EE101A1168F8EE422A81EEA22A45E088
:1034000001EE901A1168F8EE611A40EE811A71EE21
:10341000800A62EE200AC1F3462101EE101AB8EECE
:10342000411A31EE001AC0EE811ABCEEE11A80EDAD
:10343000001A1168C1F3064101EE101AB8EE411AE4
:1034400031EE001AC0EE811ABCEEE11A80ED011ACD
:103450001168C1F3066101EE101AB8EE411A31EE9F
:10346000000A80EE801ABCEEC10A80ED020A30BD6F
:1034700001EE901ADFED0F2A03E001EE901ADFED66
:103480000E2A1168F8EE611A82EEA12AC1F3080132
:10349000B6E7FFE7002101604160816030BD0000B8
:1034A00028440258000000390024744C304402586B
:1034B0000090D0030024744A20BCBE4B494930B56B
:1034C000484C0B1D0A68143409681D68246802F012
:1034D0000303C5F30012C1F30531C4F3CC04002982
:1034E00014FB02F200EE102AF8EE400A75D03F4AB3
:1034F0009FED3D1AB7EE000A6BB1DFED3D1A012BCF
:1035000001D0022B64D002EE101A1168F8EE422AA4
:1035100081EEA22A21E0334C283C23689B0612D579
:10352000344B246801EE901A1168C4F3C104F8EE1C
:10353000612AE34001EE903AC1F30801F8EE611A06
:1035400081EEA22A0BE001EE901ADFED2B2A00BFDC
:10355000F8EE611A116882EEA12AC1F3080101EEAA
:10356000901A1168F8EE611A40EE811A71EE800A25
:1035700062EE200AC1F3462101EE101AB8EE411A9C
:1035800031EE001AC0EE811ABCEEE11A80ED001A8D
:103590001168C1F3064101EE101AB8EE411A31EE7E
:1035A000001AC0EE811ABCEEE11A80ED011A116812
:1035B000C1F3066101EE101AB8EE411A31EE000AAD
:1035C00080EE801ABCEEC10A80ED020A30BD04E034
:1035D00001EE901ADFED092ABAE70021016041608F
:1035E0008160F3E72844025800000039384402584B
:1035F0000024744A0090D0030024744C20BCBE4BBD
:10360000494930B5484C0B1D0A681C3409681D68CF
:10361000246802F00303C5F30022C1F30551C4F38B
:10362000CC04002914FB02F200EE102AF8EE400A46
:1036300075D03F4A9FED3D1AB7EE000A6BB1DFED42
:103640003D1A012B01D0022B64D002EE101A116832
:10365000F8EE422A81EEA22A21E0334C283C23686E
:103660009B0612D5344B246801EE901A1168C4F3FE
:10367000C104F8EE612AE34001EE903AC1F308017B
:10368000F8EE611A81EEA22A0BE001EE901ADFED4E
:103690002B2A00BFF8EE611A116882EEA12AC1F34D
:1036A000080101EE901A1168F8EE611A40EE811AD5
:1036B00071EE800A62EE200AC1F3462101EE101A73
:1036C000B8EE411A31EE001AC0EE811ABCEEE11AD2
:1036D00080ED001A1168C1F3064101EE101AB8EE30
:1036E000411A31EE001AC0EE811ABCEEE11A80EDEB
:1036F000011A1168C1F3066101EE101AB8EE411A01
:1037000031EE000A80EE801ABCEEC10A80ED020A9A
:1037100030BD04E001EE901ADFED092ABAE700217E
:10372000016041608160F3E72844025800000039DD
:10373000404402580024744A0090D0030024744C82
:1037400020BCBE4B2DE9F04F864A4FF48079DFF85C
:1037500010824845844B89B0844EA8F10405844901
:103760004FF080574FEA22144FF0005C2ED1D8F86A
:10377000000000F00700052824D2DFE800F0EC9AF2
:103780006A25910003A8FFF7F5FD049809B0BDE88C
:10379000F08F6846FFF792FE0098F7E706A8FFF75C
:1037A0002FFF0698F2E70868C0F3C10022FA00F084
:1037B000ECE70A68D20568D5B84266D12046E5E74D
:1037C0001846E3E70020E1E73046DFE74FF4007AF0
:1037D000504510D1D8F8000000F4E070802838D0AF
:1037E00004DC002850D04028ECD162E0C028EBD0A7
:1037F0004845E7D154E04FF48069484511D1D8F8E5
:10380000000000F46060484523D003DCE0B350457D
:10381000D8D14EE0B0F5C06FD6D0B0F5006FD1D1A1
:103820003EE04FF4805948454FF4804B15D1D8F80D
:10383000000000F4E040B0F5005F0AD003DC18B3EC
:103840004845BFD135E0B0F5405FBDD05845B9D14E
:1038500026E008688000B5D5A0E7DFF81891B0F53C
:10386000002F4FF4803A11D0504534D1286810F41D
:10387000803070D05045A5D108680001A2D56846B7
:10388000FFF71CFE029881E765E01EE0D9F8000012
:1038900010F440300DD050450FD0B0F5003F91D11D
:1038A00028680D6800F040506D0782D5002880D14F
:1038B00079E70868000185D56BE70868800081D545
:1038C00006A8FFF79DFE089860E709688903C2D53E
:1038D000604589D174E7584529D1D9F8000000F036
:1038E000E04030F0704584D100170728BFF46AAF7C
:1038F000DFE800F005290D15192D040064E7FFF736
:1039000027FD43E76846FFF7D9FD01983EE70868C1
:103910008000A0D506A8FFF773FE079836E7086871
:10392000400798D53FE70868C00594D546E7B0F54D
:10393000004F86D1D8F8000010F0405007D0B842B0
:1039400009D0604597D108680001DBD43AE70868E0
:103950008003FBD534E708688001F7D512E7000043
:10396000504402580090D00340787D010080BB0095
:1039700000440258584402582DE9FC5F044650F8B0
:10398000241B002500902E460801FE4FDFF8F88327
:103990001DD5A06E50B1B0F5801F0CD0B0F5001F42
:1039A0000ED0B0F5401F1DD001250FE0386840F45F
:1039B0000030386016E00221201D02F02FFF03E0E6
:1039C0000098022102F0BAFF05000BD02E46208895
:1039D000C00523D5606D05281ED2DFE800F00C116C
:1039E000161B1B00A26ED8F8001021F440111143E1
:1039F000C8F80010EBE7386840F40030386009E0A0
:103A00000021201D02F00AFF03E00098002102F0CF
:103A100095FF05467DB100E001252E4620888005F2
:103A20002BD5A06DC02826D00EDCA8B1402818D018
:103A300080280FD11AE0626DD8F8001021F007013C
:103A40001143C8F80010E9E7B0F5807F13D0B0F556
:103A5000A07F10D001250FE0386840F400303860B6
:103A600009E00021201D02F0D9FE03E000980021AA
:103A700002F064FF054685B12E46208840052ED50C
:103A8000E06DB0F5C06F28D010DCB8B1B0F5007FA4
:103A900019D0B0F5806F0FD11AE0A26DD8F80010E0
:103AA00021F4E0711143C8F80010E6E7B0F5006FAB
:103AB00013D0B0F5206F10D001250FE0386840F426
:103AC0000030386009E00021201D02F0A7FE03E06D
:103AD0000098002102F032FF05468DB12E46206885
:103AE000DFF8A4B28001ABF1040B1ED5A06CD0B1FD
:103AF00010280ED0202811D0302814D0012513E032
:103B0000E26DD8F8001021F460611143C8F800108C
:103B1000E5E7386840F40030386004E00221201DF9
:103B200002F07CFE05466DB12E462088C0042BD5E0
:103B3000206EB0F5005F20D00DDCA0B1B0F5805F45
:103B40000FD115E0A26CDBF8001021F03001114319
:103B5000CBF80010E9E7B0F5405F13D0B0F5804F27
:103B600010D001250FE0386840F40030386009E0DB
:103B70000021201D02F052FE03E00098002102F017
:103B8000DDFE054685B12E462088800429D5606E6D
:103B9000B0F5403F23D010DC08B3B0F5803F14D01F
:103BA000B0F5003F0FD115E0226ED8F8001021F4D7
:103BB000E0411143C8F80010E6E7B0F5802F0ED0C1
:103BC000B0F5A02F0BD001250AE00121201D02F045
:103BD00025FE03E00098012102F0B0FE05466DB11C
:103BE0002E462088DFF8A0A140040AF1080A25D556
:103BF000D4F8AC0030F0704109D01DE0626ED8F806
:103C0000001021F4E0211143C8F80010E9E7001783
:103C1000072811D2DFE800F00E04090E0E0E0E0088
:103C20000121201D02F0FAFD03E00098012102F0BD
:103C300085FE05467DB100E001252E462088000462
:103C40001FD5606FD8B1B0F1805F0ED0B0F1005FCA
:103C500010D0012514E0D4F8AC20DAF8001021F0DF
:103C6000E0411143CAF80010E8E7386840F400303A
:103C7000386004E00121201D02F0D0FD05466DB141
:103C80002E462068C0011ED5606CD0B101280ED030
:103C9000022811D0032814D0012513E0626FD8F850
:103CA000001021F040511143C8F80010E9E73868CE
:103CB00040F40030386004E00221201D02F0AEFD27
:103CC000054665B12E46206840024FD52F48016851
:103CD00041F480710160FFF719FA81460EE0626CD1
:103CE000DBF8001021F003011143CBF80010EAE7E4
:103CF000FFF70CFAA0EB0900642835D823480068C8
:103D0000C005F5D58DBBDFF88090B4F8B01009F18F
:103D10002009D9F8000001F4407100F44070884295
:103D200011D0D9F80010D9F8002021F4407142F4E4
:103D30008032C9F80020D9F8002022F48032C9F876
:103D40000020C9F80010D4F8B000B0F5807F2AD167
:103D5000FFF7DCF9019022E0FFF7D8F90199411A49
:103D600041F2883081421AD903252E462078DFF8A7
:103D70001890C00709F1040945D0D4F8800018282C
:103D80003FD005E02C4402585044025800480258E5
:103D900026DC80B3082829D0102825D12CE0D9F8BA
:103DA00000008007D8D5D4F8B010C1F30120032853
:103DB000FE480DD0016821F47C510160B4F8B020B8
:103DC000D9F80010C2F30B021143C9F80010CDE777
:103DD000F74A036802EA111223F47C511143ECE71D
:103DE00020280ED028280CD001250BE00121201D11
:103DF00002F014FD04E004E00098012102F09EFDB1
:103E000005465DB12E46207880071FD5E06F062855
:103E10001AD2DFE800F0170D12171717D4F8802018
:103E2000D9F8001021F038011143C9F80010EAE771
:103E30000121201D02F0F2FC03E00098012102F0B4
:103E40007DFD054675B100E001252E46207840072E
:103E50001FD5D4F89800062819D2DFE800F0160C18
:103E600011161616E26FD9F8001021F00701114360
:103E7000C9F80010EAE70121201D02F0CFFC03E0A1
:103E80000098012102F05AFD05469DB100E0012590
:103E90002E46207880062BD5D4F89400B0F1405FF0
:103EA00024D011DC10B3B0F1805F15D0B0F1005F09
:103EB00010D116E0D4F89820DAF8001021F00701AC
:103EC0001143CAF80010E4E7B0F1804F0ED0B0F112
:103ED000A04F0BD001250AE00021201D02F09EFC1E
:103EE00003E00098022102F029FD05468DB12E461F
:103EF000207840062BD5D4F8A000B0F5406F24D030
:103F000011DC10B3B0F5806F15D0B0F5006F10D193
:103F100016E0D4F89420D9F8001021F0E0411143C4
:103F2000C9F80010E4E7B0F5805F0ED0B0F5A05FEF
:103F30000BD001250AE00021201D02F06FFC03E0F8
:103F40000098022102F0FAFC05468DB12E46207839
:103F500000062BD5D4F8A400B0F5C04F24D011DC56
:103F600010B3B0F5005F15D0B0F5804F10D116E05A
:103F7000D4F8A020DAF8001021F4E0511143CAF877
:103F80000010E4E7B0F5004F0ED0B0F5204F0BD095
:103F900001250AE00021201D02F040FC03E000980A
:103FA000022102F0CBFC05464DB12E4620780007D9
:103FB0001ED5D4F88800B0F5805F0AD00FE0D4F8A1
:103FC000A420DAF8001021F460411143CAF800106F
:103FD000ECE70098022102F0B1FC00B10126D4F810
:103FE0008820D9F8001021F440511143C9F800107D
:103FF0002078C00613D5D4F89C00B0F5807F05D199
:104000000098022102F09AFC00B10126D4F89C200D
:10401000DAF8001021F440711143CAF8001020684A
:10402000000316D5D4F8A80038B1B0F5803F09D008
:10403000B0F5003F0BD001250AE00021201D02F061
:10404000EDFB03E00098022102F078FC054685B103
:104050002E462068400322D5D4F88C00B0F5801F8E
:1040600011D0B0F5001F13D0B0F5401F15D00125B9
:1040700014E0D4F8A820DAF8001021F440311143FC
:10408000CAF80010E5E7386840F40030386004E012
:104090000098012102F052FC054655B12E462068D9
:1040A000C0031CD5E06C70B1B0F5803F10D0012585
:1040B00014E0D4F88C20D9F8001021F440111143F9
:1040C000C9F80010EBE7386840F40030386004E0CD
:1040D0000221201D02F0A2FB0546D5B12E46206824
:1040E000800005D50098022102F028FC00B10126CD
:1040F000206880031CD5D4F88400B8B1B0F5807F67
:1041000010D0B0F5007F11D0B0F5407F0ED0012562
:104110000DE0E26CDBF8001021F480311143CBF8A4
:104120000010DCE7386840F400303860E5B32E4614
:104130002068C00207D5A26FD8F8001021F0004116
:104140001143C8F800102068800207D5E26ED8F845
:10415000001021F080711143C8F80010208800057C
:1041600007D5226FDAF8001021F000611143CAF878
:1041700000102068400009D50C48016821F4004176
:1041800001600168D4F8B420114301602068002860
:1041900007DA226DDBF8001021F040511143CBF813
:1041A00000102068000205E012E0000010440258F0
:1041B000CFFFFF0008D5D4F89020D9F8001021F4E3
:1041C00040011143C9F8001066B10120BDE8FC9F11
:1041D000D4F88420D9F8001021F440711143C9F8B3
:1041E0000010A5E70020F1E72DE9F05F04000F467D
:1041F0007ED0DFF83882D8F8000000F00F00B84217
:104200000CD2D8F8001021F00F013943C8F8001083
:10421000D8F8000000F00F00B84269D12078844D32
:1042200040070AD52069296801F07001884204D945
:10423000296821F070010143296020787C4E361DE9
:1042400000070AD56069316801F07001884204D91D
:10425000316821F07001014331602078C0060AD531
:10426000A069316801F4E061884204D9316821F421
:10427000E061014331602078DFF8B4B180060BF1D2
:10428000080B0CD5E1695846DBF8002002F07002FB
:10429000914204D9026822F070020A430260207839
:1042A00080070AD5E068296801F00F01884204D927
:1042B000296821F00F01014329602078C0073ED012
:1042C0005B49A2682868183920F4706010432860A0
:1042D0006068022818D0032819D00968012819D06D
:1042E000490700294ADADFF848A1AAF1080A00E0E4
:1042F00044E0DAF8002022F007020243CAF8002066
:10430000FEF704FF814612E009688903E9E70968BE
:104310008901E6E7C905E4E7FEF7F8FEA0EB09012D
:1043200041F28830814202D90320BDE8F09F6168E4
:10433000DAF8000000F03800B0EBC10FECD12078C3
:1043400080070AD5E068296801F00F01884204D28D
:10435000296821F00F0101432960D8F80010404678
:1043600001F00F01B9420BD9016821F00F01394367
:104370000160006800F00F00B84201D00120D4E7CE
:10438000207840070AD52069296801F07001884229
:1043900004D2296821F070010143296020780007C8
:1043A0000AD56069316801F07001884204D2316831
:1043B00021F07001014331602078C0060AD5A06960
:1043C000316801F4E061884204D2316821F4E0618F
:1043D00001433160207880060CD5E1695846DBF84E
:1043E000002002F07002914204D2026822F07002B2
:1043F0000A43026000F06CF80E492A682B68C2F389
:10440000032203F00F038A5CC95C02F01F0201F073
:104410001F01D040084A20FA01F1116007490860E5
:1044200007480068BDE8F05FFEF7ACBE0020005210
:1044300018440258CC8C00081C00002418000024EA
:104440001000002430B500F043F80B4A0B490C4B28
:1044500015681468C5F3032204F00F048A5C095D33
:1044600002F01F0201F01F01D040064A20FA01F1BC
:1044700019601060084630BD18440258CC8C000802
:104480001C0000241800002400B5FFF7DBFF0549DD
:104490000968054AC1F30211515C01F01F01C840CF
:1044A00000BD00001C440258CC8C000800B5FFF78A
:1044B000C9FF05490968054AC1F30221515C01F0B1
:1044C0001F01C84000BD00001C440258CC8C0008ED
:1044D000454970B545480968434B103B11F0380217
:1044E00008D00111082A03D0102A0BD0182A0BD0AB
:1044F000084670BD19688906FBD51968C1F3C1016A
:10450000C84070BD3A4870BD3749374D18310C1D51
:1045100024350A68096826682D6802F0030406F04D
:104520000102C1F30511C5F3CC0515FB02F200EE43
:10453000102AB8EE400AE9B32F4ADFED2E0AB7EE93
:10454000001A6CB1DFED2D1A012C01D0022C43D0E2
:1045500002EE101A1068F8EE422A81EEA22A1EE03E
:104560001C68A40611D51B6801EE901A1168C3F3EC
:10457000C103F8EE612AD84001EE900AC1F30800A9
:10458000F8EE611A81EEA22A0BE001EE901ADFED3F
:104590001C2A00BFF8EE611A106882EEA12AC0F34F
:1045A000080001EE900AF8EE611A40EE201A31EE92
:1045B000810A00E015E022EE000A1068C0F34620F0
:1045C000401C00EE900AF8EE600A80EE201ABCEE65
:1045D000C10A10EE100A70BD01EE901ADFED092A33
:1045E000D8E7002070BD0000104402580090D003AE
:1045F00040787D0100000039304402580024744A9C
:104600000024744C20BCBE4B2DE9F04704007DD043
:10461000FF4F2078FE4D1837DFF8F483103DC007B8
:1046200066D0D8F80000396800F03800102822D091
:10463000182803D101F0030002281CD06068B0F5EF
:10464000803F1FD010B3B0F5A02F2BD0B0F5A81F1E
:1046500028682FD020F480302860286820F480203B
:104660002860286820F480102860606898B3FEF7FE
:104670004DFD06462BE02868800339D56068002888
:10468000C5D035E0286840F48030EDE7286820F494
:1046900080302860286820F480102860286820F482
:1046A0008020E1E7286840F480202860286820F412
:1046B000801005E040F480202860286840F48010D5
:1046C0002860DFE7FEF722FD801B642877D8286882
:1046D0008003F7D50CE0FFE7FEF718FD064604E07F
:1046E000FEF714FD801B6428F0D828688003F7D4F7
:1046F0002078800744D5D8F80000DFF81493396893
:1047000010F03800A9F10C0910D000E0CEE0182814
:1047100001D188070AD0E06808B3296821F019019F
:1047200001432960FEF7F2FC064614E028684007C2
:1047300002D5E0680028A3D0217CD9F8002022F01F
:10474000FE4242EA0161C9F8001019E0FEF7DEFC02
:10475000801B0228BAD828684007F7D5ECE72868FC
:1047600020F001002860FEF7D1FC064605E000BFFE
:10477000FEF7CCFC801B0228A8D828684007F7D495
:104780002078C00646D5D8F80000DFF88492396852
:1047900000F03800A9F10409082811D0182803D125
:1047A00001F0030001280BD0E0690028286822D01E
:1047B00040F080002860FEF7A9FC064617E0E1E023
:1047C0002868C00502D5E06980286FD194F82010D0
:1047D000D9F8002022F07C5242EA0161C9F80010A9
:1047E00018E000BFFEF792FC801B0228B2D82868B0
:1047F000C005F7D5EAE720F080002860FEF786FCC8
:10480000064604E0FEF782FC801B0228A2D8286836
:10481000C005F7D42078000729D57D486169643048
:1048200000298146016811D041F001010160FEF7C5
:104830006DFC064605E000BFFEF768FC801B022801
:1048400088D8D9F800008007F6D510E021F00101E2
:104850000160FEF75BFC064605E000BFFEF756FC74
:10486000801B022888D8D9F800008007F6D4207869
:10487000800625D5A0690028286810D040F4805013
:104880002860FEF743FC064605E000BFFEF73EFC4D
:10489000801B022876D828688004F7D510E020F421
:1048A00080502860FEF732FC064606E03BE100BF80
:1048B000FEF72CFC801B022864D828688004F7D4FB
:1048C000207840076DD5DFF84C91D9F8001041F4FD
:1048D0008071C9F80010FEF719FC064605E000BF1C
:1048E000FEF714FC801B64284CD8D9F80000C005E2
:1048F000F6D5474EA0686036012818D0D8B10528F3
:1049000025D0852830682AD020F00100306030683A
:1049100020F004003060306820F080003060A06833
:1049200041F2883A78B3FEF7F1FB814626E0306821
:1049300040F00100F2E7306820F00100306030689C
:1049400020F080003060306820F00400E6E7306836
:1049500040F004003060306820F0800005E040F056
:1049600004003060306840F080003060DFE700BF56
:10497000FEF7CCFBA0EB0901514503D83068800756
:10498000F6D50EE088E0FFE7FEF7C0FB814605E0C4
:10499000FEF7BCFBA0EB090151457DD830688007CC
:1049A000F6D4606AC0B34146DFF8648008F120089D
:1049B0000968C1F3C20103296FD00228286820F0DA
:1049C0008070286003D0FEF7A1FB044680E0FEF76C
:1049D0009DFB064605E000BFFEF798FB801B022802
:1049E00073D828688001F7D4E26A40F2F33138685E
:1049F00054F8283F884340EA021018433860217B6E
:104A00004FF4FE0C22894FF0FE47208A267D04E0F9
:104A1000104402580048025887E04902521EA1F58E
:104A2000007189B2401EC2F308021143761E0CEADF
:104A3000004001433E4807EA066211433C4AC8F879
:104A400000100832016821F00101016011684FF681
:104A5000F876236AB14341EAC30111600168A26993
:104A600021F00C01114301600168E26921F00201AB
:104A700011430160016841F480310160016841F433
:104A800000310160016841F480210160016841F05A
:104A900001010160286801E017E01DE040F080702E
:104AA0002860FEF733FB044605E000BFFEF72EFB4F
:104AB000001B022809D828688001F7D535E000BF1F
:104AC000FEF724FB001B022802D90320BDE8F08773
:104AD00028688001F4D428E039680128D8F800005B
:104AE00021D0A26A01F0030393421CD1E26AC1F310
:104AF00005118A4217D1216BC0F30802491E8A4270
:104B000011D1616BC0F34622491E91420BD1A16BBA
:104B1000C0F30642491E914205D1E16BC0F3066025
:104B2000491E814201D00120D0E70020CEE70000DD
:104B30002C4402582DE9F047040029D04E4D4FF087
:104B4000000920684D4B4E4AA842C4F8289006D070
:104B5000984204D0904202D0E1680F2918D8E16849
:104B60004FF0010AE76B0831C9080AEB5716714389
:104B7000A84205D0984203D0904201D0082907D816
:104B8000A84203D0984201D0904204D1102902D902
:104B90000120BDE8F08794F8810020B9204684F810
:104BA000809000F06FF8022084F88100206801688E
:104BB00021F001010160A069B0F1806F11D160683E
:104BC000B0F5800F01D018B10BE0A06B20B108E068
:104BD000A06BB0F1805F04D12068016841F480517E
:104BE0000160A56AE0692368E16B2843E268084335
:104BF00010439860D4E90D02D4E90571636A256910
:104C00001843D4F820C00A43266810432843A56DF2
:104C10003843D4E90182D4E9123140EA0C0040EA79
:104C200008000843104318432843F060606868B9DF
:104C30002068816821F4C05141F4006181602068DE
:104C4000816821F4C06141F4806181602068016D58
:104C500021F0010101656068400206D52068626D9F
:104C6000C16821F000411143C160C4F8849084F808
:104C700081A000208DE70000003001400038004096
:104C8000003C004010B5B4B0044614212EA8FBF738
:104C900061FBB8216846FBF75DFB18492068884234
:104CA00029D14FF480400090002468462B94FEF7F1
:104CB00063FE08B1FCF725FA1148016841F02001B4
:104CC0000160006800F0200033900D48143801683E
:104CD00041F00201016000682EAB022100F00200E9
:104CE00033902820082283E8130006482EA9CDE936
:104CF0003142FEF7E9F834B010BD0000001400584E
:104D00005445025800040258401EB0F1807F10B58F
:104D100001D3012010BD4FF0E02460610F21601726
:104D200002F00CFF0020A0610721216110BD704737
:104D300070477047F0B590F83C20012A38D01D4EDE
:104D4000012480F83C40022280F83D2002681A4D80
:104D50005368B242D2F808C001D0AA4203D14F68CA
:104D600023F470033B430F6823F070031F43576025
:104D70000268B24210D0B2F1804F0DD00F4B9A4270
:104D80000AD00F4B9A4207D00E4B9A4204D0AA4247
:104D900002D00D4B9A4204D189682CF0800319434C
:104DA0009160002180F83D4080F83C100846F0BD3D
:104DB0000220F0BD0000014000040140000400405A
:104DC00000080040000C00400018004010B504002E
:104DD00003D094F83D0010B107E0012010BD002081
:104DE00084F83C00204600F023F8022084F83D00BF
:104DF0002068211D01F0F6FE012084F8480084F8A7
:104E00003E0084F83F0084F8400084F8410084F8B4
:104E1000420084F8430084F8440084F8450084F894
:104E2000460084F8470084F83D00002010BD0000D3
:104E300008B501681648B1F1804F0AD0154A914271
:104E400019D1016841F002010160006800F0020020
:104E50001BE0016841F00101016000680022114679
:104E600000F0010000901C20FEF716FABDE8084093
:104E70001C20FEF703BA084A914207D1016841F0AD
:104E800004010160006800F00400009008BD00000B
:104E900048450258000400400008004090F83D10CA
:104EA000012901D001207047134B0222016880F8CC
:104EB0003D20994211D0B1F1804F0ED00F48814270
:104EC0000BD00F48814208D00E48814205D00E48D1
:104ED000814202D00D48814207D188680C4A1040B7
:104EE000062806D0B0F5803F03D0086840F00100E6
:104EF00008600020704700000000014000040040EE
:104F000000080040000C0040000401400018004070
:104F10000700010090F83D10012901D001207047E1
:104F2000154A022180F83D100168CB6843F0010367
:104F3000CB600068904211D0B0F1804F0ED00F4985
:104F400088420BD00E49884208D00E49884205D0CD
:104F50000D49884202D00D49884207D181680C4A28
:104F60001140062906D0B1F5803F03D0016841F019
:104F70000101016000207047000001400004004072
:104F800000080040000C00400004014000180040F0
:104F90000700010070B5044690F83C00012814D0C9
:104FA000394B012584F83C50022084F83D002268EA
:104FB0009068184020F47F4090600868702828D0DE
:104FC00010DC10F00F0F03D04BE04FF0020070BD6B
:104FD0004FEA2012072A44D2DFE802F05151515122
:104FE00049323A00B0F1101F49D009DCB0F5805FBA
:104FF00037D0B0F5005F17D0B0F5801F31D13EE05B
:10500000A0F5801120393AD0102938D0202928D194
:1050100035E04A682068D1E9021301F052FE2068A9
:10502000816841F0770109E04A682068D1E90213FC
:1050300001F047FE2068816841F48041816010E002
:10504000CA684968206801F0D7FF2068502106E04F
:10505000CA684968206801F0E0FF2068602101F01B
:1050600039FE002084F83D5084F83C0070BDCA68C9
:105070004968206801F0C0FF20684021EFE72268FE
:1050800001461046EBE7000088FFCEFF2DE9F04116
:1050900004000D4603D094F83D0018B108E001204B
:1050A000BDE8F081002084F83C00204600F04CF878
:1050B000244A022084F83D00206881681140816004
:1050C0002068211D01F08EFD226840F20336AF6991
:1050D00040F60C4C2B684FF2F00EA86891680B4319
:1050E0009169B14341EA07210843D5E9031720EA52
:1050F0000C00D5E9076C20EA0E00D2F820E03F0151
:1051000040EA062668686D69314347EA0C379360C8
:1051100023680F4301219F612EF0AA0242EA051382
:1051200022681843106284F8481084F83E1084F80E
:105130003F1084F8441084F8451084F83D10002096
:10514000AEE70000F8BFFEFF10B586B0044614219C
:105150006846FBF7FFF813492068884220D11248BF
:10516000016841F001010160006800F00100059054
:105170000D481038016841F01001016000680123FA
:10518000022200F01000059000204FF420610091F1
:105190006946CDE90120CDE903030448FDF794FEFB
:1051A00006B010BD000001405045025800100258E2
:1051B00070B504464FF0020094F83E2094F83F503A
:1051C00094F8446094F8453021B104290DD0012AA7
:1051D0001AD113E0012A17D1012E15D184F83E000F
:1051E00084F844000021206820E0012D0CD1012B1F
:1051F0000AD184F83F0084F8450014E0012D03D162
:10520000012E01D1012B01D0012070BD84F83E0098
:1052100084F83F0084F8440084F8450001222068A7
:10522000002101F041FD20680122042101F03CFD34
:105230002068016841F001010160002070BD7047E5
:1052400070B50446006800250169C943890715D473
:10525000C168C943890711D4EA1E0261012121777F
:10526000206880698007204602D0FFF7E8FF04E04D
:1052700000F0D0F8204600F08FF92577206801690A
:10528000C943490717D4C168C943490713D4022148
:105290006FF00402026121772068806910F4407F7A
:1052A000204602D0FFF7CBFF04E000F0B3F8204621
:1052B00000F072F9257720680169C943090716D4FF
:1052C000C168C943090712D404216FF008020261C2
:1052D00021772068C0698007204602D0FFF7AFFF22
:1052E00004E000F097F8204600F056F92577206892
:1052F0000169C943C90617D4C168C943C90613D493
:1053000008216FF01002026121772068C06910F453
:10531000407F204602D0FFF792FF04E000F07AF8C9
:10532000204600F039F9257720680169C943C9078B
:1053300008D1C168C943C90704D1891E016120464B
:1053400000F0B2F920680169C943090609D4C168AF
:10535000C943090605D46FF0800101612046FFF7BB
:10536000E7FC20680169C943C90509D4C168C9437C
:10537000090605D46FF4807101612046FFF7D7FC60
:1053800020680169C943490609D4C168C94349066F
:1053900005D46FF040010161204600F097F92068C4
:1053A0000169C94389060BD4C168C943890607D47A
:1053B0006FF0200101612046BDE87040FFF7B9BCE5
:1053C00070BD000010B586B0044614216846FAF797
:1053D000C1FF0D492068884214D10C48016841F092
:1053E000080101600068002100F00800059002201B
:1053F00002030092CDE90101CDE90310044869469A
:10540000FDF762FD06B010BD00080040404502589F
:10541000000C0258704770B5044690F83C000D46E9
:1054200001280BD0012084F83C000C2A45D007DC71
:105430005AB1042A1BD0082A78D12CE0022070BD72
:10544000102A4ED0142A71D15DE0206801F04CFC86
:105450002068816941F0080181612068816921F03B
:105460000401816120682A698169114311E0206883
:1054700001F08EFC2068816941F40061816120683F
:10548000816921F48061816120682969826942EA29
:10549000012181614AE0206801F0C6FC2068C169F1
:1054A00041F00801C1612068C16921F00401C161B6
:1054B00020682A69C169114311E0206801F0FAFCF3
:1054C0002068C16941F40061C1612068C16921F4AB
:1054D0008061C16120682969C26942EA0121C16114
:1054E00024E0206801F01CFD2068416D41F00801B6
:1054F00041652068416D21F00401416520682A69F9
:10550000416D114311E0206801F040FD2068416DBC
:1055100041F4006141652068416D21F4806141657D
:1055200020682969426D42EA01214165002084F822
:105530003C0070BD10B5040003D094F83D0010B1DC
:1055400007E0012010BD002084F83C00204600F058
:1055500022F8022084F83D002068211D01F042FB62
:10556000012084F8480084F83E0084F83F0084F865
:10557000400084F8410084F8420084F8430084F835
:10558000440084F8450084F8460084F8470084F815
:105590003D00002010BD70477047000010B5044664
:1055A0004FF0020269B1042912D0082917D00C2942
:1055B0001CD0102921D094F84300012824D00120C8
:1055C00010BD94F83E000128F9D184F83E201DE07A
:1055D00094F83F000128F2D184F83F2016E094F8B7
:1055E00040000128EBD184F840200FE094F84100FE
:1055F0000128E4D184F8412008E094F84200012811
:10560000DDD184F8422001E084F8432001222068A3
:1056100001F04AFB1A4920681A4A88420AD090428F
:1056200008D0194B984205D0184B984202D0184B1D
:10563000984203D1436C43F400434364206888429A
:1056400010D0B0F1804F0DD0124988420AD01249D3
:10565000884207D01149884204D0904202D01049B4
:10566000884207D181680F4A1140062906D0B1F55A
:10567000803F03D0016841F001010160002010BDAE
:10568000000001400004014000400140004401408E
:10569000004801400004004000080040000C0040A9
:1056A00000180040070001001CB50068B0F1804FF1
:1056B00009D10549881E831ECDE90001021F811F03
:1056C000083800F096FB1CBD2C000024704730B554
:1056D00090F88010012918D0012280F88020242120
:1056E000C0F884100022202450F8641B0B680D6859
:1056F00023F0005325F001050D60026050F8641C92
:105700000B6004620277104630BD022030BD704746
:10571000704770B5044690F8800001281DD0012222
:1057200084F880202420C4F884002068056802687A
:1057300022F0010202602068826822F060620A435F
:105740008260204601F07CFC226820210020156048
:10575000C4F8841084F8800070BD022070BD70B55C
:10576000044690F8800001281DD0012284F8802092
:105770002420C4F8840020680568026822F0010231
:1057800002602068826822F060420A4382602046FC
:1057900001F056FC2268202100201560C4F8841016
:1057A00084F8800070BD022070BD7047704770475C
:1057B0002DE9F04103680446002540F60F06D8693C
:1057C00019689A68304209D186067DD501F0200615
:1057D00002F080573E4377D0216F39E1AF4EB04F92
:1057E00016400F4037436FD0C70709D0CF0507D504
:1057F00001271F62D4F88C3043F00103C4F88C30C9
:1058000083070AD5D30708D0276802233B62D4F860
:105810008C3043F00403C4F88C3043070AD5D30717
:1058200008D0276804233B62D4F88C3043F002038D
:10583000C4F88C3003070CD501F02003334308D0A3
:10584000266808233362D4F88C3043F00803C4F888
:105850008C3003050BD54B0109D526684FF4006346
:105860003362D4F88C3043F02003C4F88C30D4F881
:105870008C30002B34D0800609D501F0200002F0D6
:105880008051084303D0216F09B120468847216821
:10589000D4F88C008968490602D410F0280F21D072
:1058A000204601F08DFC20688168490615D5816885
:1058B00021F040018160E06F78B17A490165E06FC5
:1058C000FCF7CAFA002800E012E009D0E06F016D91
:1058D00000E02046BDE8F04108472046FFF767FF9B
:1058E000BDE8F0812046FFF762FFC4F88C50F7E76F
:1058F000E76E2026012F71D1C7066FD5CF066DD573
:105900001020186222689068400669D5E16F664BE6
:105910000868984234D0644B1833984230D0624BB8
:10592000303398422CD0604B4833984228D05E4B9D
:105930006033984224D05C4B7833984220D05A4B45
:10594000903398421CD0584BA833984218D0574BEC
:10595000984215D0554B1833984211D0534B3033E1
:1059600098420DD0514B4833984209D04F4B603389
:10597000984205D04D4B7833984201D04B4B903331
:1059800040680004000CABD0B4F85C308342A7D967
:10599000A4F85E00C869B0F5807F18D0106820F4C4
:1059A000807010602068816821F0010181602068AA
:1059B000816821F040018160C4F88860E566206854
:1059C000016821F010010160E06FFCF793F8B4F872
:1059D0005C00B4F85E10401A81B220E023E0FFE7DB
:1059E000B4F85C00B4F85E10B4F85E30401A81B2CE
:1059F000002BC8D00029C6D010682D4B20F4907021
:105A000010602068826802EA03028260C4F888603D
:105A1000E56625672068026822F0100202602046D1
:105A2000FFF775FE5CE7C70209D5570207D54FF4AB
:105A3000801018622046BDE8F041FFF7B7BE0706A8
:105A40000AD501F0800702F40002174304D0616F09
:105A500000297FF43EAF43E742060CD54A060AD53B
:105A60001968204621F040011960C4F88460656718
:105A700000F07BF934E7020206D54A0004D520463F
:105A8000BDE8F041FFF791BEC001CBD50029C9DACE
:105A90002046BDE8F041FFF73BBE000001000010CA
:105AA00020010004AD710008100002401004024003
:105AB000FEFFFFEF10B5040003D0D4F8840010B14E
:105AC00007E0012010BD002084F88000204600F08F
:105AD00027F82420C4F884002068016821F001011F
